{
  "_format": "hh-sol-artifact-1",
  "contractName": "Auction",
  "sourceName": "contracts/AuctionContract.sol",
  "abi": [
    {
      "inputs": [],
      "stateMutability": "nonpayable",
      "type": "constructor"
    },
    {
      "inputs": [],
      "name": "Owner",
      "outputs": [
        {
          "internalType": "address payable",
          "name": "",
          "type": "address"
        }
      ],
      "stateMutability": "view",
      "type": "function"
    },
    {
      "inputs": [
        {
          "internalType": "address",
          "name": "",
          "type": "address"
        }
      ],
      "name": "allBids",
      "outputs": [
        {
          "internalType": "uint256",
          "name": "",
          "type": "uint256"
        }
      ],
      "stateMutability": "view",
      "type": "function"
    },
    {
      "inputs": [
        {
          "internalType": "uint256",
          "name": "amount",
          "type": "uint256"
        }
      ],
      "name": "bid",
      "outputs": [],
      "stateMutability": "nonpayable",
      "type": "function"
    },
    {
      "inputs": [
        {
          "internalType": "uint256",
          "name": "fee",
          "type": "uint256"
        }
      ],
      "name": "depositFee",
      "outputs": [],
      "stateMutability": "payable",
      "type": "function"
    },
    {
      "inputs": [],
      "name": "get",
      "outputs": [
        {
          "internalType": "enum Auction.AucStatus",
          "name": "",
          "type": "uint8"
        }
      ],
      "stateMutability": "view",
      "type": "function"
    },
    {
      "inputs": [],
      "name": "getBalance",
      "outputs": [
        {
          "internalType": "uint256",
          "name": "",
          "type": "uint256"
        }
      ],
      "stateMutability": "view",
      "type": "function"
    },
    {
      "inputs": [],
      "name": "highestBid",
      "outputs": [
        {
          "internalType": "uint256",
          "name": "",
          "type": "uint256"
        }
      ],
      "stateMutability": "view",
      "type": "function"
    },
    {
      "inputs": [],
      "name": "highestBidder",
      "outputs": [
        {
          "internalType": "address",
          "name": "",
          "type": "address"
        }
      ],
      "stateMutability": "view",
      "type": "function"
    },
    {
      "inputs": [
        {
          "internalType": "address",
          "name": "",
          "type": "address"
        }
      ],
      "name": "participationFee",
      "outputs": [
        {
          "internalType": "uint256",
          "name": "",
          "type": "uint256"
        }
      ],
      "stateMutability": "view",
      "type": "function"
    },
    {
      "inputs": [],
      "name": "status",
      "outputs": [
        {
          "internalType": "enum Auction.AucStatus",
          "name": "",
          "type": "uint8"
        }
      ],
      "stateMutability": "view",
      "type": "function"
    }
  ],
  "bytecode": "0x608060405234801561001057600080fd5b50336000806101000a81548173ffffffffffffffffffffffffffffffffffffffff021916908373ffffffffffffffffffffffffffffffffffffffff1602179055506001600360006101000a81548160ff021916908360028111156100775761007661009e565b5b0217905550436001819055506104066001546100939190610106565b60028190555061015c565b7f4e487b7100000000000000000000000000000000000000000000000000000000600052602160045260246000fd5b6000819050919050565b7f4e487b7100000000000000000000000000000000000000000000000000000000600052601160045260246000fd5b6000610111826100cd565b915061011c836100cd565b9250827fffffffffffffffffffffffffffffffffffffffffffffffffffffffffffffffff03821115610151576101506100d7565b5b828201905092915050565b610b738061016b6000396000f3fe6080604052600436106100915760003560e01c80636d4ce63c116100595780636d4ce63c1461016e57806391f9015714610199578063b4a99a4e146101c4578063bd201607146101ef578063d57bde791461022c57610091565b806312065fe014610096578063200d2ed2146100c15780633cec179f146100ec578063423c485a14610129578063454a2ab314610145575b600080fd5b3480156100a257600080fd5b506100ab610257565b6040516100b891906106ee565b60405180910390f35b3480156100cd57600080fd5b506100d6610297565b6040516100e39190610780565b60405180910390f35b3480156100f857600080fd5b50610113600480360381019061010e91906107fe565b6102aa565b60405161012091906106ee565b60405180910390f35b610143600480360381019061013e9190610857565b6102c2565b005b34801561015157600080fd5b5061016c60048036038101906101679190610857565b610468565b005b34801561017a57600080fd5b50610183610656565b6040516101909190610780565b60405180910390f35b3480156101a557600080fd5b506101ae61066d565b6040516101bb9190610893565b60405180910390f35b3480156101d057600080fd5b506101d9610693565b6040516101e691906108cf565b60405180910390f35b3480156101fb57600080fd5b50610216600480360381019061021191906107fe565b6106b7565b60405161022391906106ee565b60405180910390f35b34801561023857600080fd5b506102416106cf565b60405161024e91906106ee565b60405180910390f35b60008060009054906101000a900473ffffffffffffffffffffffffffffffffffffffff1673ffffffffffffffffffffffffffffffffffffffff1631905090565b600360009054906101000a900460ff1681565b60076020528060005260406000206000915090505481565b4360025411156102f8576002600360006101000a81548160ff021916908360028111156102f2576102f1610709565b5b02179055505b436002541161033c576040517f08c379a000000000000000000000000000000000000000000000000000000000815260040161033390610947565b60405180910390fd5b678ac7230489e800008114610386576040517f08c379a000000000000000000000000000000000000000000000000000000000815260040161037d906109b3565b60405180910390fd5b80600760003373ffffffffffffffffffffffffffffffffffffffff1673ffffffffffffffffffffffffffffffffffffffff1681526020019081526020016000208190555060008060009054906101000a900473ffffffffffffffffffffffffffffffffffffffff1673ffffffffffffffffffffffffffffffffffffffff166108fc349081150290604051600060405180830381858888f19350505050905080610464576040517f08c379a000000000000000000000000000000000000000000000000000000000815260040161045b90610a1f565b60405180910390fd5b5050565b60008054906101000a900473ffffffffffffffffffffffffffffffffffffffff1673ffffffffffffffffffffffffffffffffffffffff163373ffffffffffffffffffffffffffffffffffffffff16036104f6576040517f08c379a00000000000000000000000000000000000000000000000000000000081526004016104ed90610a8b565b60405180910390fd5b436002541161053a576040517f08c379a000000000000000000000000000000000000000000000000000000000815260040161053190610947565b60405180910390fd5b6000600760003373ffffffffffffffffffffffffffffffffffffffff1673ffffffffffffffffffffffffffffffffffffffff16815260200190815260200160002054116105bc576040517f08c379a00000000000000000000000000000000000000000000000000000000081526004016105b390610b1d565b60405180910390fd5b80600660003373ffffffffffffffffffffffffffffffffffffffff1673ffffffffffffffffffffffffffffffffffffffff16815260200190815260200160002081905550600454811115610653578060048190555033600560006101000a81548173ffffffffffffffffffffffffffffffffffffffff021916908373ffffffffffffffffffffffffffffffffffffffff1602179055505b50565b6000600360009054906101000a900460ff16905090565b600560009054906101000a900473ffffffffffffffffffffffffffffffffffffffff1681565b60008054906101000a900473ffffffffffffffffffffffffffffffffffffffff1681565b60066020528060005260406000206000915090505481565b60045481565b6000819050919050565b6106e8816106d5565b82525050565b600060208201905061070360008301846106df565b92915050565b7f4e487b7100000000000000000000000000000000000000000000000000000000600052602160045260246000fd5b6003811061074957610748610709565b5b50565b600081905061075a82610738565b919050565b600061076a8261074c565b9050919050565b61077a8161075f565b82525050565b60006020820190506107956000830184610771565b92915050565b600080fd5b600073ffffffffffffffffffffffffffffffffffffffff82169050919050565b60006107cb826107a0565b9050919050565b6107db816107c0565b81146107e657600080fd5b50565b6000813590506107f8816107d2565b92915050565b6000602082840312156108145761081361079b565b5b6000610822848285016107e9565b91505092915050565b610834816106d5565b811461083f57600080fd5b50565b6000813590506108518161082b565b92915050565b60006020828403121561086d5761086c61079b565b5b600061087b84828501610842565b91505092915050565b61088d816107c0565b82525050565b60006020820190506108a86000830184610884565b92915050565b60006108b9826107a0565b9050919050565b6108c9816108ae565b82525050565b60006020820190506108e460008301846108c0565b92915050565b600082825260208201905092915050565b7f41756374696f6e20686173206265656e20656e64656400000000000000000000600082015250565b60006109316016836108ea565b915061093c826108fb565b602082019050919050565b6000602082019050818103600083015261096081610924565b9050919050565b7f506c6561736520706179203130206574686572206465706f7369742066656500600082015250565b600061099d601f836108ea565b91506109a882610967565b602082019050919050565b600060208201905081810360008301526109cc81610990565b9050919050565b7f466565206e6f742073656e740000000000000000000000000000000000000000600082015250565b6000610a09600c836108ea565b9150610a14826109d3565b602082019050919050565b60006020820190508181036000830152610a38816109fc565b9050919050565b7f4f776e65722063616e6e6f742062696400000000000000000000000000000000600082015250565b6000610a756010836108ea565b9150610a8082610a3f565b602082019050919050565b60006020820190508181036000830152610aa481610a68565b9050919050565b7f596f752068617665206e6f74206465706f736974656420796f7572207061727460008201527f696369706174696f6e2066656500000000000000000000000000000000000000602082015250565b6000610b07602d836108ea565b9150610b1282610aab565b604082019050919050565b60006020820190508181036000830152610b3681610afa565b905091905056fea2646970667358221220d5d341b1825f49567952fdd778434ee7ae2c34a09e54641246a2d1f501880c5764736f6c634300080d0033",
  "linkReferences": {},
  "deployedLinkReferences": {}
}